:020000040800F2
:10000000C0100020750A0008552F0008610A00087A
:10001000610A0008610A0008610A00080000000087
:10002000000000000000000000000000290B000894
:10003000610A000800000000D50A000869190008DC
:10004000550C0008550C0008550C0008550C00080C
:10005000550C0008550C0008550C0008550C0008FC
:10006000550C0008550C0008550C0008550C0008EC
:10007000550C0008550C0008550C0008550C0008DC
:10008000550C0008550C0008550C0008550C0008CC
:10009000550C0008550C0008550C0008550C0008BC
:1000A000550C0008550C0008550C0008550C0008AC
:1000B000550C0008550C0008550C0008550C00089C
:1000C000550C0008550C0008550C0008550C00088C
:1000D000550C0008550C0008550C0008550C00087C
:1000E000550C0008550C0008550C0008550C00086C
:1000F000550C0008550C0008550C0008550C00085C
:10010000550C0008550C0008550C0008550C00084B
:10011000550C0008550C0008550C0008550C00083B
:10012000550C0008550C0008550C0008550C00082B
:08013000550C0008550C0008F5
:1001380053B94AB9002908BF00281CBF4FF0FF3146
:100148004FF0FF3000F094B9ADF1080C6DE904CE22
:1001580000F006F8DDF804E0DDE9022304B070479A
:100168002DE9F0470646DDF820E00846B4460D467E
:10017800002B4DD18A4214466BD9B2FA82F242B1B1
:10018800C2F12003954026FA03F394401D4306FA72
:1001980002FC260CA7B2B5FBF6F14FEA1C4306FB9E
:1001A800115543EA054301FB07F0984209D9E318C2
:1001B80001F1FF3580F0FC80984240F2F980023965
:1001C80023441B1A1FFA8CFCB3FBF6F006FB103312
:1001D8004CEA034C00FB07F363450AD914EB0C0CFB
:1001E80000F1FF3580F0E680634540F2E380A444E7
:1001F800023840EA0140ACEB030C0021BEF1000FCD
:1002080004D02CFA02F30022CEE90032BDE8F087D0
:100218008B4208D9BEF1000F01D0CEE90061002160
:100228000846BDE8F087B3FA83F1174600294CD198
:10023800834202D3B24200F20A81B6EB070C60EBAC
:10024800030301201D46BEF1000FDFD0CEE900C533
:10025800DCE7002A00F094801A46B4FA84F3002BF5
:1002680040F0AA800B1B270CA6B201214FEA1C40C4
:10027800B3FBF7F507FB153340EA034306FB05F02C
:10028800984207D9E31805F1FF3802D2984200F2E4
:10029800E38045461B1A1FFA8CFCB3FBF7F007FBFB
:1002A80010334CEA034C06FB00F3634508D914EB02
:1002B8000C0C00F1FF3602D2634500F2CA803046CA
:1002C800ACEB030C40EA054098E7C1F120058B40F0
:1002D80022FA05FC4CEA030C00FA01F426FA05F3AD
:1002E800E84002FA01F923434FEA1C4206FA01FAF0
:1002F800B0FBF2F71FFA8CF602FB17001C0C44EA5D
:10030800004407FB06F0A0420AD91CEB040407F1DD
:10031800FF3880F09A80A04240F29780023F644400
:10032800241A9BB2B4FBF2F002FB104443EA0443E4
:1003380000FB06F69E4209D91CEB030300F1FF34CB
:1003480080F081809E427ED90238634440EA0740AB
:10035800A0FB09749B1BA3423E46A04663D360D012
:10036800BEF1000F0AD0BAEB060263EB080303FAEA
:1003780005F5CA401543CB40CEE90053002145E7B7
:10038800730843EAC1734A08190C41EA02414FEA6B
:10039800C67C9BB2B2FBF4F02646254627461F22B0
:1003A80043EA0143B1FBF4F15B1B41EA00415DE71D
:1003B800294606E728461CE71A46C3F120019C4057
:1003C80026FA01F320FA01F190400343270C06FABC
:1003D80002FCB1FBF7F0A6B207FB1015190C41EAB5
:1003E800054100FB06F58D423BD9611801D28D42CB
:1003F80020D8491B0138B1FBF7F5A84605FB06F5DF
:1004080007FB18119BB243EA0143AB4227D2E3181A
:1004180008F1FF31C8D2AB42C6D2A8F10201234489
:10042800C2E7BA459CD2B7EB090664EB0C04013865
:10043800A04695E7651B29440238B1FBF7F5A846A5
:1004480005FB06F5DCE7204680E7474668E70846EF
:10045800F9E6A444023833E7023D23441AE741464B
:10046800A2E7491BB1FBF7F5A84605FB06F5C7E768
:10047800704700BF08B5044802F048FD002142F269
:10048800107003F025FAF6E74C400008014B1B6892
:10049800184700BF00000020014B1860704700BFDC
:1004A8000000002030B585B004460D46102200211A
:1004B800684603F078FA02238DF802302A46044B86
:1004C80001932146684602F021FA05B030BD00BF0D
:1004D80095040008034A536823F002035360002080
:1004E800704700BF002004E0EFF31180102383F36E
:1004F8001288BFF36F8F094B1A683AB9084A116816
:1005080041F4807111601168C905FCD51A6801327F
:100518001A6080F31188BFF36F8F7047FC010020C9
:1005280000040058EFF31180102383F31288BFF3FF
:100538006F8F114B1A689AB9BFF35B8F0F4B01226B
:1005480053E8001F002904D143E8002CBCF1000F38
:10055800F6D1BFF35B8F80F31188BFF36F8F7047BD
:10056800012A01BF06490A6822F480720A601A68E3
:10057800013A1A60EFE700BFFC010020F8010020F3
:1005880000040058084B1A6842F400721A601A688E
:1005980042F480621A601A6842F480721A60034B4F
:1005A800034A1A60704700BF00400058240000202A
:1005B80000093D00014B036000207047683E0008B9
:1005C80008B50348034A0021121A02F0B7FC08BD17
:1005D800580000202C0300200748084A084908B59D
:1005E800121A02F0ADFC0748074A0849BDE808405E
:1005F800121A02F0A5BC00BF000000205400002021
:1006080034450008000000200000002034450008A0
:1006180038B505460C4699B1D1E901230F48096858
:1006280002F074FCD4E90423E1680D4802F06EFC82
:10063800E1690C4802F06AFCA1690B4802F066FC0B
:10064800012D05D1EFF305810848103902F05EFC51
:1006580021462846BDE8384001F000BB6740000845
:1006680097400008C7400008D74000080641000826
:1006780030BFFFF7FDBF00BF054B5A699B689A4220
:100688001FBF044A536843F080535360704700BF4C
:10069800FC02002000ED00E02DE9F8432B4D8046D8
:1006A8002B481746894602F031FCAB6ADA0622D598
:1006B800284802F02BFC1124AB6A1B0703D52648F7
:1006C80002F024FC1224214DAB6A9E0715D523485D
:1006D80002F01CFC6E6BAB6A1C0634D52048314610
:1006E80002F014FCB9F1000F03D0AB6A23F08003C9
:1006F800AB62132403E01024DEE76FF01506134DF8
:10070800AB6AD80703D5174802F000FC1424AB6A7B
:10071800D90602D4AB6A9A070BD50C4B5B681B054C
:1007280007D54146304600F05BFA10B180F30988DE
:100738000224064A936A43F0FF03936200233B7046
:100748002046BDE8F8836FF01506D2E700ED00E01B
:100758001A41000831410008654100087941000844
:1007680092410008A941000810B51D4C1D4802F02F
:10077800CDFBA36A990130D51B4802F0C7FB1E20A8
:10078800A36ADA0103D5194802F0C0FB1F20144CF4
:10079800A36A1B0303D5164802F0B8FB2120A36AFD
:1007A800590303D5134802F0B1FB22200C4CA36A6D
:1007B8009A0303D5104802F0A9FB2320A36ADB03A0
:1007C80003D50E4802F0A2FB2420054A936A6FEA7B
:1007D80003436FEA1343936210BD1D20D0E700BFA7
:1007E80000ED00E0C9410008E2410008F6410008B8
:1007F80011420008304200085642000871420008C1
:1008080070B5204C064620480D4602F07FFBA36ACF
:10081800D90435D51D4802F079FB1720A36A1A05BB
:1008280003D51B4802F072FB1820164CA36A9B05DF
:100838000FD5184802F06AFBA16BA36A180407D504
:10084800154802F063FB1EB1A36A23F40043A362B8
:1008580019200C4CA36A5A0503D5104802F056FB20
:100868001A20A36ADB0503D50D4802F04FFB1B20B5
:10087800044A936A43F47F43936200232B7070BD4C
:100888001620CBE700ED00E09D420008B4420008C6
:1008980065410008C6420008E0420008F642000828
:1008A800124300082DE9F0415A4B5F688AB0C7F33C
:1008B8000806002585F31188BFF36F8F02F07F4388
:1008C800B3F17F4F06D1140717D5500713D45248F8
:1008D80002F01CFB00252C464FF00008F31E8DF893
:1008E8000780092B00F28780DFE803F00A7B7F7717
:1008F8008585858585830C46EEE704460125EBE76B
:100908004648444E02F002FB8DF80780F36A9A07C6
:1009180004D5434802F0FAFA002326E0F36A002BD4
:1009280001DA4048F6E7F36A5B00F5D53E4802F085
:10093800EDFA7369A26943F480737361BFF34F8F53
:10094800BFF36F8F736932F8022C23F480737361DD
:10095800BFF34F8FBFF36F8F4DF602739A4224D1C6
:100968002168324802F0D2FA23689DF80720CAB9F4
:1009780002AE04F1200720686168324603C20834D9
:10098800BC421646F7D1099A002D40D0C2F308019F
:1009980021B96FEA52226FEA4222099202A9184647
:1009A800FFF736FE0AB0BDE8F081B36ADBB233B1B7
:1009B8000DF1070201212046FFF76EFE0FE0B36A32
:1009C80013F47F4F05D00DF107010120FFF718FF41
:1009D80005E0B36AB3F5803F9ED3FFF7C5FE034633
:1009E800C3E70DF107020021E5E70DF1070100203B
:1009F800ECE70F488EE70F4B0F49104817F4F87FC4
:100A0800A6F1100208BF194602F080FA84E76FF3D6
:100A18000802C2E700ED00E05943000885430008DA
:100A28009D430008BF430008CE430008EE4300087A
:100A38000B4400082B4300084043000830440008DA
:100A4800044B5A6942F010025A615A6922F00802AE
:100A58005A61704700ED00E0EFF30880EFF3098179
:100A680001B57246FFF71EFF01BD00BF0A4880F3BB
:100A78000888102080F3118808484FF40461401852
:100A880080F30988EFF314800221084380F3148867
:100A9800BFF36F8F02F065FAC010002040030020FA
:100AA800084B9B6883420BD1EFF3058343B1064B98
:100AB8005A6842F080525A605A6A22F400425A62D6
:100AC80001F02ABCFC02002000ED00E012498A680F
:100AD8004FF030001044EFF3098C80E8F01F10202D
:100AE80080F31288BFF36F8F0C4F4FF000664A698E
:100AF8008A603E60506F0023536780F3118804B505
:100B0800104600F0C1F8BDE8044002F1300090E85A
:100B1800F01F8CF309887047FC02002004ED00E008
:100B28001EF0040F0CBFEFF30880EFF30980816912
:100B380011F8021C0229FFD001B5724602F002FA30
:100B480001BD00BF40B2002807DB044A4109012368
:100B580000F01F00834042F82130704700E100E0B8
:100B680040B20028ACBF00F16040074B01F1010121
:100B7800ACBF00F5614000F00F004FEA0111B4BFAF
:100B8800195480F80013704714ED00E0044B054A2F
:100B980023F07F039360BFF34F8FBFF36F8F7047CE
:100BA8000000000800ED00E042F8203C009B42F8FD
:100BB8001C3C0A49019B42F8183C029B42F8143C31
:100BC80021F001014FF0807342F8043C42F8081C00
:100BD8000023203A02654367704700BF2F2F0008A3
:100BE800094B0246986870B112F1160F406E05D095
:100BF800A0F14003934205D8824203D2814228BF24
:100C08000020704700207047FC02002008B50B4BFD
:100C18000E461546986000F037F82C4686F309888A
:100C28000020044B98472046002100220023024C54
:100C380020470000872F00082F2F0008FC02002003
:100C4800014B10221A61704700ED00E008B5EFF380
:100C58000583064A103B02EBC30152F8330049688A
:100C68008847BDE80840FFF707BD00BF083C0008FB
:100C7800024B034A0348012100F074B80000012028
:100C880000000020683E0008436E054A403B1360A0
:100C9800044B4021C2E901131046012100F06CB851
:100CA8000002002000000B15084AC2F898000B68E3
:100CB80023F01F03034343F01003C2F89C308B68F2
:100CC80043F00103C2F8A030704700BF00ED00E018
:100CD8002DE9FF41174E0D461F4604464FF0000808
:100CE800A84523DA6068D8B13FB1411E08421BD13C
:100CF8001F2819D92368194216D12368019302F0D5
:100D08005EF9A36803430393D6F89030C3F307232F
:100D1800D0B2013B984207D801A9FFF7C5FF421C92
:100D280008F101080C34DBE76FF01502104604B037
:100D3800BDE8F08100ED00E0044B0522C3F89420E3
:100D4800BFF34F8FBFF36F8F704700BF00ED00E018
:100D5800BFF35F8F024B0022C3F89420704700BF97
:100D680000ED00E010B5034C01232278FFF7B0FF37
:100D7800207010BD2803002008B50B4A0023127804
:100D8800FFF7A6FF10F1160F07D0084A0021D2F886
:100D98009030C3F30723984200DB08BDC2F89800DF
:100DA800C2F8A0100130F2E72803002000ED00E0AF
:100DB800F0B5534B534CD3F890302568C3F3072351
:100DC8009D4285B000F29880FFF7C2FF00200C26F4
:100DD800854216D14C4C4A4F25706846FFF7EAFB0E
:100DE80000250646AE4213D1237845490020D1F8A4
:100DF8009020C2F30722934278DBFFF79DFF002083
:100E080043E0616806FB0011FFF74EFF0130DFE7A2
:100E1800009800EB05114FEA051CCB686FF313032C
:100E2800B3F5000F49D00AD8B3F5001F2FD0B3F59A
:100E3800800F37D0B3F5801F10D00135D2E7B3F15A
:100E4800807F43D0B3F1007FF7D150F80C30886829
:100E58004A6802F0B4F840F4802009E050F80C30F9
:100E680088684A6802F0ABF840F0885040F43020B7
:100E7800CDE901230390D7F890302078C3F30723F6
:100E8800013B98422BD96FF0150005B0F0BD50F822
:100E98000C3088684A6802F092F840F0885040F4B4
:100EA8000020E5E750F80C3088684A6802F087F8B7
:100EB80040F0C06040F40030DAE750F80C30886841
:100EC8004A6802F07CF840F08270D1E750F80C30A4
:100ED80088684A6802F073F840F08870C8E701A98A
:100EE800FFF7E2FE237801332370A6E7C1F89830B4
:100EF800C1F8A00001337AE74FF0FF30C5E700BF23
:100F080000ED00E0743E00082803002008B5024BFD
:100F18001B689847002008BD0C020020034B044AB8
:100F28001860937843F00203937070470C02002016
:100F38000400002008B50649064821F00701C1F160
:100F4800005202F5803201F0A9FF002008BD00BF61
:100F58000711002010020020044B1844002301331D
:100F68008B4200F8012BFADB704700BF34000020E9
:100F78002DE9F041104F064600254FF0010873781F
:100F8800ECB2A34201D8BDE8F08133781C44204676
:100F980000F0C6F868B1204600F0D6F857F83430AB
:100FA8003BB107EBC40204F01F00516808FA00F0D7
:100FB80098470135E3E700BF1C020020024670B1E4
:100FC800B0FA80F3C3F11F03DBB20649C856064BDB
:100FD800D3F880100A43C3F88020FFF7B3BDFF237E
:100FE800F3E700BF3400002000080058034AD2F895
:100FF800803023EA0003C2F88030704700080058A8
:10100800032921D8DFE801F0020C10190F4B1A68E8
:1010180022EA00021A605A6822EA00025A607047FF
:101028000A4B1A680243F5E7084B5A6802435A60AC
:101038001A6822EA00021A607047044B1A680243D1
:101048001A605A6810435860704700BF000800587B
:1010580030B5B0B1B0FA80F0C0F11F00C0B20B4B90
:1010680053F830408C4204D103EBC0056D689542BB
:1010780005D044B943F8301003EBC0035A60002090
:1010880030BDFF20EBE76FF00F00F9E71C020020EE
:1010980060B1B0FA80F0C0F11F00C0B2044B00226A
:1010A80043F8302003EBC0035A607047FF20F5E790
:1010B8001C02002000F00302043292000F23934028
:1010C80043EA900303F003020649023251F8220072
:1010D8001A0C00EA134092FAA2F3B3FA83F3D84049
:1010E800704700BF0000014013B50C4C204602F0C9
:1010F8008BFB60B14FF480735422CDE90023A368C1
:101108001B683BB169462046984702B010BD6FF096
:101118001200FAE76FF05700F7E700BF083B000836
:101128003F280DD800F01F0201239340054A1F28CD
:1011380094BFD268D26A93430CBF01200020704745
:1011480000207047000800583F280CD800F01F0204
:1011580001231F2803FA02F3044A02D8D3600020AF
:101168007047D362FBE76FF015007047000800581E
:1011780038B50B88C3F30B030B2B0D46144628D840
:1011880013B96FF0850023E0013B0A2BF9D801A2BF
:1011980052F823F0F11100080B120008C9110008D9
:1011A8000312000807120008F1110008F1110008E5
:1011B800F11100088B110008F7110008F711000859
:1011C8004FF4FA4020602B68B3F5805F1CD20020F2
:1011D80038BD03F6B873C3F30B031C2BD1D80E4AE2
:1011E80022FA03F3DB07CCD50C4B1868EAE700F0CA
:1011F800E1F8062358434008E4E70948E2E70020FD
:10120800E0E74FF40040DDE7C3F313330133B0FBED
:10121800F3F02060DBE700BF11011111240000206A
:101228000024F40070B5604D01F0D0FF284601F0AD
:10123800CCFF00F04DFC4FF0B0435C4AD3F80831C6
:1012480003F00F0352F823601368B0FBF6F6B5FB02
:10125800F3F5AE4202D2284600F0ACFC01F02DFFB7
:10126800012809D04FF0B042136843F4807313602B
:1012780001F023FF0128FBD14FF0B044D4F894309B
:1012880043F00103C4F89430D4F894309B07FBD59D
:10129800FFF72AF9D4F8903043F00103C4F89030EE
:1012A8004FF0B043D3F890209407FBD5D3F89020A3
:1012B80042F08002C3F890204FF0B044D4F8903048
:1012C8001805FBD5FFF72EF9A36803F00C030C2BC8
:1012D8001CD101F0F2FE012807D0236843F4807383
:1012E800236001F0EAFE0128FBD14FF0B0439A6871
:1012F80022F0030242F001029A609A6802F00C029E
:10130800042AFAD19A6822F0F0029A604FF0B044A9
:10131800236823F08073236023689901FCD4E36871
:1013280023F0606343F00073E360E36843F0807385
:10133800E36000F043F8236843F0807323604FF0C4
:10134800B0431A689201FCD59A6822F0F0029A60BC
:101358009A6842F003029A604FF0B042936803F033
:101368000C030C2BFAD1AE4202D3284600F022FC23
:101378000F4B0D4A1A604FF0B04300209A6822F4D0
:10138800E0629A609A6822F460529A60D3F8082161
:1013980022F0F002C3F80821D3F8082122F00F0246
:1013A800C3F8082170BD00BF006CDC02DC3F0008F8
:1013B80024000020004870470024F4004FF0B04398
:1013C8000549DA681140054A0A43DA60DA6842F0EA
:1013D8008052DA60704700BF8C80FF1F0206002031
:1013E80008B5074802F010FA38B10648FFF796FD2D
:1013F8000448FFF751F8002008BD6FF01200FBE722
:10140800E83B0008111400080A2838B5074D0446BF
:1014180004D1AB680D215B6828469847AB68034840
:101428005B68E1B29847204638BD00BFE83B00083A
:101438002DE9F8434768D0F81090B86890460E46F2
:101448001D4601F017FEB8F5001F044615D13046B9
:10145800BC68FFF72FFE84420CD1314601F00AFE2A
:101468000446FFF7C3FD2046FFF712FE0021204681
:10147800FFF7C6FD0020BDE8F883B8F5800F1FD040
:10148800B5F1806F18D0B5F1C06F17D0B5F1007FF6
:1014980019D102250F494A462046FFF7D9FDA8B9B8
:1014A800B968304601F0EBFD20462946FFF7A8FD54
:1014B8002046FFF783FDDDE70125EBE70325E9E794
:1014C8006FF08500D7E76FF01500D4E76FF00F00D5
:1014D800D1E700BF4534000838B5036905465860B0
:1014E8000A4C204602F090F960B1A3681B6833B13A
:1014F800696820460C31984700EAE07038BD6FF003
:101508005700F9E76FF01200F8E700BF083B000842
:101518002DE9F0471E4F044600EBC1060025B442F2
:1015280001D1002014E02068C30600F01F0911D47F
:10153800656845F02005C0F3481AC0F3442019280F
:1015480023D857F82080B8F1000F0DD16FF01200A2
:10155800BDE8F087B9F1100F04D0B9F1110FEAD145
:101568006568E8E73025E6E7404602F04DF90028CF
:10157800ECD04B462A460AF00F01404601F074FFB2
:10158800002804F10804CADAE2E76FF01500DFE783
:10159800E43E0008012912D0022907D089B9006861
:1015A800094BC01A18BF0120000370470068064B9A
:1015B80098420CBF4FF400504FF440507047002041
:1015C80070474FF4005070470080004010B51C462B
:1015D800094B33F812200023FEF7AAFD090263081D
:1015E80041EA10610002181822464FF0000341F149
:1015F8000001FEF79DFD10BD34400008F7B5024616
:101608000C4619B96FF0150003B0F0BD03691868EE
:101618008368DB68002B46D0516801AA0D68C96849
:1016280098470028F0DB214B9D422ED1019F204E88
:1016380000252346AAB238460021FFF7C7FFA0F5C8
:101648004070B04203D901350C2DF2D1DAE7174EBC
:10165800F36A23F00F032B43F362164B33F815207C
:10166800002338461946FEF763FD00230546194650
:1016780060084FF480772246E5FB0701FEF758FD26
:10168800C0F31300F0600020BEE72B6823F400438A
:101698002B60019A02EB5402B2FBF4F20F2AB1D983
:1016A80092B2EA60EFE76FF05700ADE700800040C4
:1016B800FFFC0F00344000082DE9F0410B79012BA5
:1016C80007460D460DD09A1E56425641B602AC79D1
:1016D800022C09D0042C01D0002B48D04FF48052A2
:1016E80005E04FF4C066F2E7002B3DD00022D91E7A
:1016F800012904D86FF085031846BDE8F0810BB1C5
:10170800042CF7D0D7F8048069794046FFF742FFE8
:10171800B0F5805F2DD0B0F5405F2CD000280CBF0D
:10172800012303239942E5D13146104601F0FCFE1E
:101738008442DFD1EB79D8F80040F3B93B695E68A1
:10174800236823F0010323602946384601F0A2FFED
:1017580003460028CED1226842F00102226095E8B3
:10176800030086E80300C7E74FF08052CAE71A462D
:10177800C8E70023D6E70223D4E7012B0BD1074B98
:101788009C42DBD0A3F574439C42D7D003F5705339
:101798009C42D3D0AEE7032BF1D0ABE70038014031
:1017A800F7B50569446806464C48286002F02CF8ED
:1017B800002800F08D80286883681B68002B00F0E3
:1017C8008A80E1689847002830DB206A01AA002156
:1017D80001F05FFE002829DB019B002219791868B7
:1017E800FFF796FE002821DB756833692C685F686F
:1017F800236823F001032360686802F005F80028D5
:1018080066D0D5E901018368DB6803B1984754E8DD
:10181800003F43F00C0344E80032002AF7D1394670
:10182800304601F037FF18B16FF0150003B0F0BD76
:101838002B7D1BB1A36843F00803A3606B7D1BB12C
:10184800636843F400436360AB7D1BB1636843F492
:1018580080336360EB7D1BB1636843F400336360DE
:101868002B7E23B31E4B9C4207D0A3F574439C42A6
:1018780003D003F570539C42D6D173681A689368F5
:1018880043F48043936023686A7E23F0787343EAC5
:10189800425323602368AA7E23F4F81343EA0243E1
:1018A8002360EB7E1BB1A36843F40043A3602B7F46
:1018B8001BB1236843F000532360236843F00103FE
:1018C8002360E3699A02FCD5E3695B02AED4FBE7C7
:1018D8006FF01200AAE76FF05700A7E7083B00086F
:1018E800003801404FF0E0230D4A996912681869E1
:1018F8009B69002908BF1146002B08BF134610F446
:10190800803F084801D1994205D20168114401601D
:101918004FF0E021096900681044C01A704700BF01
:10192800F8020020EC0200200A4B102283F8232042
:10193800094B4FF496521A60084B002018604FF07C
:10194800E02341F2BF225A6198611A6942F0070206
:101958001A61704700ED00E0F8020020EC02002058
:10196800684620F007018D4601B5FFF7BBFF0D4B18
:101978000D4A186811680844106000221A600B4A62
:1019880013684FF49651C01AB0FBF1F001FB003315
:10199800136000F0A7FEFEF76FFEBDE80140854624
:1019A800704700BFEC020020F4020020F002002083
:1019B8002DE9F041324D91B1421C0AD14FF0E0229D
:1019C800136923F0010313614FF07F432B60BDE8D7
:1019D800F0812C68012807DC4FF000080BE0431C5D
:1019E8002C68F7D140F6A65040F6A7539842A8BFF6
:1019F800184600F1FF38EFF31186102383F312889D
:101A0800BFF36F8FFFF76EFF1E4F4FF0E0230022EA
:101A1800D3F818C03B6818441B4B1A601B4B1A6854
:101A2800831A29D44FF4965E18FB0E3303F59553A9
:101A38001F33B3FBFEF1131A0EFB0133B3F5806FAE
:101A4800134A38BF4FF48063934228BF13464FF0C0
:101A5800E0222B609169013B536100238C4593611F
:101A6800ACEB01033ABFE4180019C018386086F3DC
:101A78001188BFF36F8FAAE74FF48063E7E700BFD1
:101A8800F8020020F4020020EC020020F0020020FE
:101A980080E8FF0038B5EFF31185102383F312882F
:101AA800BFF36F8F084B1C68084B1B68E41AFFF7DD
:101AB80019FF85F31188BFF36F8F4FF496532044B5
:101AC800B0FBF3F038BD00BFF4020020F0020020A4
:101AD80010B54FF0B0439A68D96812F00C0205D0DF
:101AE8000C2A4AD101F00303012B53D14FF0B04126
:101AF8002C480B6813F0080306D00B6813F0080392
:101B080037D1D1F8941007E00C68240756BFD1F8F4
:101B180094300968C3F3032350F82330002A0CBF1C
:101B2800184600204FF0B0418A6802F00C020C2AD7
:101B38001ED1CA6802F00302022A31D0032A06D154
:101B48000B68194A13F4801F184B08BF13464FF04F
:101B5800B042D068D168D268C0F306205843C1F3B8
:101B680002130133B0FBF3F0530F0133B0FBF3F072
:101B780010BD0B68C3F30313CEE7042A07D0082A65
:101B880008D11B6813F4801307D10748CAE708482F
:101B98000023C7E700231846C4E704480023C1E729
:101BA800034BD4E79C3F000800127A0000093D006F
:101BB8000024F400204A034607CA84B00DF1100C33
:101BC8000CE90700002B33D01C4A126802F4C062EB
:101BD800B2F5007F22D11A4A934229D8194A934272
:101BE80024D9194A93428CBF0223012304AA174916
:101BF80002EB830353F80C2C0B6823F00703134301
:101C08000B600B6803F007039A4213D0086800F0D2
:101C18000700831A5842584104B070470C4A93424F
:101C280006D80C4A934201D90B4ADBE70023DDE7CB
:101C38000020F1E70120EFE75C3E000800040058AF
:101C4800006CDC0280A812010051250200400058F7
:101C58000024F400808D5B00001BB70038B5EFF35B
:101C68001185102383F31288BFF36F8F064B9C688E
:101C780001F0DDFD85F31188BFF36F8F2046BDE8C5
:101C88003840FEF70DBF00BFFC02002038B50A4BF4
:101C980053F82040013053F82050A54200D838BDF1
:101CA800606830B1037FDB0701D401F095FD08348B
:101CB800F3E723689847FAE71C40000870B5264BFD
:101CC800264C274D86B0012203201A70FFF7DEFF4D
:101CD80000F07EFD0420FFF7D9FFAC4226460FD363
:101CE80000F01CFA1D4CAC4221D300F02BFAFEF791
:101CF800C1FB1C4A137B23F00103137306B070BDAC
:101D0800636A0593236A0493E3690393A3690293BF
:101D18006369019323690093303454E90A2354E931
:101D28000C0100F0C1F854F8303C5E65D5E7D4E901
:101D38000A23B3F1FF3F08BFB2F1FF3F05D052EAD3
:101D48000301206803D100F0BDFA3034CBE706491F
:101D5800183000F035FCF8E729030020F83D0008AA
:101D6800F83D0008D8000020D138000870B50023DD
:101D780086B00122CDE90423134D144C01930F22A0
:101D8800CDE902321249142303FB004405EBC015C8
:101D980006464FF4A07000FB06110E4B00944FF45A
:101DA8008072284600F080F86B7B0B4AE56023F0D0
:101DB80004036B734FF4046306FB03331344267464
:101DC800636006B070BD00BF58000020FC02002010
:101DD800800B00203D380008400300207FB500201C
:101DE800FFF754FF284B83F30888284C636943F4B2
:101DF800007363610025F02384F82230E5772576A7
:101E08006576A57684F82050636A43F4E02363621C
:101E1800FEF716FEFEF714FF4FF0FF33A362E362EE
:101E2800FEF7C6FFFEF724FF19481A4C00F07AF8AF
:101E3800FEF7A8FB0120FFF729FF0220FFF726FF86
:101E480000F0BAF9144B15495C61154B0593012351
:101E58004FF48062CDE90353CDE90155114B00954C
:101E6800204600F021F8637B064623F00403204651
:101E7800637301F0FCFC2846FFF778FF094A3146F6
:101E88002046FEF7C3FE00BF800B002000ED00E0F7
:101E980058010020D8000020FC020020C00C0020BF
:101EA800D7440008C51C0008F0B5073285B022F0F9
:101EB800070204467F320E9D0D9E2573583022F08E
:101EC8003F02C4E91600042500203F2AA673C4E98E
:101ED8000600A0606573E07301F14007A2F14006B7
:101EE80005D880F31188BFF36F8F284602DFC4E955
:101EF80019768D1800260C9AE66602920B9A0192C2
:101F08000A9A009220462A46FEF74EFE044B666562
:101F18009B6803B11B6F2367284605B0F0BD00BF5F
:101F2800FC02002040F2011383810023C0E9193329
:101F38000367014B98607047FC020020094A9368C8
:101F48006FF00A019967084958674B6843F0805356
:101F58004B60002383F31188BFF36F8F9368986FEA
:101F6800704700BFFC02002000ED00E070B5437B25
:101F780013F09F0F2DD11C4C63F07F03224643734F
:101F880052F8183F934225D1E169C0E90021086061
:101F9800E0610FE08B42F8D01B68002BF5D093F975
:101FA8000E6090F90E50AE42F4DD5968C0E9003178
:101FB80008605860A569954200D005B9E568A3682E
:101FC8005A7BD20608D1DA897F2A05D9AA691AB9B3
:101FD800636170BDE169E0E7AB4202D0284600F0DA
:101FE80069FA6561F5E700BFFC02002038B590F991
:101FF8000D20437B002A014604DA03F07F03437374
:1020080001F023FC0D4D2A46AB6852F8184F944254
:1020180000D004B9EC688B4207D05A7BD20604D1B1
:10202800DA897F2A01D9A2692AB1A34202D02046BF
:1020380000F040FA23466B6138BD00BFFC02002067
:1020480070B590F90D20437B002A014604DA03F0AD
:102058007F03437301F0F9FB4B7B1C4C63F07F0358
:1020680022464B7352F8183F93422DD1E069C1E9DB
:1020780000200160E1610FE08342F8D01B68002B6B
:10208800F5D093F90E6091F90E50AE42F4DD586820
:10209800C1E9003001605960A569A368954200D084
:1020A80005B9E5688B4207D05A7BD20604D1DA8994
:1020B8007F2A01D9AA692AB1AB4202D0284600F08A
:1020C800F9F92B46636170BDE069D8E7FC0200208E
:1020D80049B9EFF3058030B9054B5A699B689A42B4
:1020E80001D0FFF72BBF81F31188BFF36F8F7047C3
:1020F800FC020020034648B9EFF3058232B9064ACC
:1021080051699268914201D0FFF718BF83F3118893
:10211800BFF36F8F704700BFFC020020EFF31181FF
:10212800102383F31288BFF36F8F054B9A68D37B14
:10213800013BD37381F31188BFF36F8F704700BFE2
:10214800FC02002070B5EFF31186102383F3128888
:10215800BFF36F8F174DAB68DA7B0132DA732A460B
:1021680052F8184F944216D1EC685A7BD20619D00F
:10217800A34213D123466B6186F31188BFF36F8F97
:10218800EFF31180102383F31288BFF36F8FBDE83C
:102198007040FFF7AFBF002CE7D1E5E7204600F01D
:1021A80089F9E7E7DA897F2AE2D9A269002ADFD12B
:1021B800E1E700BFFC020020024B03F11802C3E96B
:1021C80006227047FC02002070B5EFF31186102339
:1021D80083F31288BFF36F8F1A4CA168E0690B680C
:1021E800814214BF1A46002249680B605960A368EF
:1021F800E1692AB9144AC3E900210B60E3610AE0E6
:1022080092F90E5093F90E00854216DD5168C3E924
:1022180000210B605360A5690B4B9D4200D005B9A6
:10222800E568A3689D4202D0284600F043F965613D
:102238003046BDE87040FFF781BE8A42DAD01268A6
:10224800D7E700BFFC02002014030020F8B550EACD
:10225800010306460C4603D1FFF7B6FF0020F8BD80
:10226800EFF31187102383F31288BFF36F8F124D9A
:10227800124BA8681860FFF7B9FEA86810492346F2
:102288003246183000F09CF9AA68537B43F00403E7
:10229800537304463846FFF751FEAB68D3E90A2367
:1022A800B3F1004F08BF002AD8D101F06AFB201A09
:1022B80020EAE070D3E700BFFC0200201C030020E6
:1022C800D138000838B50446EFF31185102383F39D
:1022D8001288BFF36F8F437B5B070FD5183001F06F
:1022E80028FB637B23F0040320466373FFF73EFE5D
:1022F80029460548BDE83840FFF7EABE85F311884E
:10230800BFF36F8F38BD00BF2A030020014B9868C8
:10231800704700BFFC0200202DE9F8430446077B04
:10232800EFF31186102383F31288BFF36F8F437B7B
:10233800190705D586F31188BFF36F8FBDE8F883B9
:10234800D90907F0010743F008026FD14273A36867
:1023580013B1204601F081FA04F1180001F0E9FAFE
:10236800A56D04F15808A84511D04FF0000975B1C2
:10237800284601F072FA05F1180001F0DAFAC5F8FA
:1023880078902846FFF7F2FDA56DA845EFD1DFF854
:10239800BC80D8F808309C4250D1EFF30589B9F1D8
:1023A800000918BF4FF00109D8F81850284A95427B
:1023B80000D00DB9D8F80C50AB4202D0284600F036
:1023C80079F82046C8F8145000F0D6FDB9F1000F8E
:1023D80002D02048FFF7A6FDD8F808309C4230D13B
:1023E800EFF305836BBB227BD20711D586F31188E7
:1023F800BFF36F8F83F31188BFF36F8F04231846E1
:1024080002DFEFF31186102383F31288BFF36F8F77
:102418003046FFF793FD002F90D0002383F31188F7
:10242800BFF36F8F0423184602DF87E703F07F03AB
:1024380043F00803437301F008FA88E74FF00009F6
:10244800B2E786F31188BFF36F8FE4E7FC02002040
:102458001403002058010020044BC01A044BC0107C
:102468005843044B01221A54704700BFD80100207A
:10247800ABAAAAAA2A030020C3897F2B12D80A4B29
:102488001B6863B1094B90F90E201B689A4209DB5F
:10249800437BDB0606D1064BC31A18BF012303F0A2
:1024A800010070470023FAE72800002020030020DD
:1024B8005800002070B50E4B0E4C1D7C182303FBF2
:1024C80005440646204601F034FA0B4B00223046FC
:1024D8005A55FFF7D1FF48B1084B09491A68013A24
:1024E8002046D317BDE8704000F06AB870BD00BF41
:1024F800FC020020D80100202A0300202800002028
:102508006124000838B5EFF31185102383F312888E
:10251800BFF36F8F104B114A9C681068A04206D118
:10252800FFF7C8FF85F31188BFF36F8F38BD00210F
:102538001B7C11600A4AD35C002BF3D02046FFF7BE
:102548009BFF0028EED0637BDB0602D12046FFF715
:1025580077FD2046E4E700BFFC0200201C030020B2
:102568002A030020024B1868984208BF00207047D1
:102578002C000020034B1B680BB9FFF78BBA002017
:10258800704700BF2403002030B570B10B4B5B6867
:1025980098420AD0036843B1D3E90421D0E904453D
:1025A800121941EB0501C3E90421D0E90032136097
:1025B8005A600023C0E9003330BD00BF2C00002062
:1025C800B3F1FF3F08BFB2F1FF3F2DE9F84F0546D1
:1025D800994614461F467BD08160EFF3118810237B
:1025E80083F31288BFF36F8FB9F1000FDFF8E8A00B
:1025F8003BDADAE900126FF001035B1A4FF0FF31A2
:1026080061EB02021B1B62EB0902012B72F1000154
:10261800BCBF01230022C0E904324FF00009FFF7D4
:10262800A1FFDFF8B8A0DAF804E0034683BBC5E9E8
:1026380000AECEF80050CAF80450FFF793FF854269
:102648000BD1274B1B6843B9B9F1000F3CD030467A
:1026580001F059F90021FFF7ABF988F31188BFF3AE
:102668006F8F20463946BDE8F88FFFF783FFDAE918
:102678000027013449F10009241849EBE073C5E942
:102688000443A418064643EB07074FF00109C6E7C1
:10269800D3E90420D5E9041C91427CEB000B08DB4C
:1026A800891A6CEB00007345C5E90410BFD01B689C
:1026B800BCE7521A60EB0C00C3E904205A68C5E96C
:1026C800003215605D60B8E7FFF754FF0646BEE7C5
:1026D80000242746C5E700BFF00100202C00002099
:1026E800240300202DE9F0470246EFF3118510235B
:1026F80083F31288BFF36F8FDFF89C90DFF89C801C
:10270800C9F80000FFF72EFF00260027D8E90013BC
:102718004FEAE27E50B1D0E9044CA2427EEB0C0AAB
:102728001BDAA41A6CEB0E06C0E9044652184FF0E7
:10273800000443EB0E032046C8E90023C9F8004013
:1027480001F0E1F82146FFF733F985F31188BFF36B
:102758006F8FBDE8F047FFF7D5BE611843EBE47310
:10276800C0E90467C8E90013FFF70EFF85F3118875
:10277800BFF36F8F83689847EFF31185102383F3B6
:102788001288BFF36F8FD9F80020121BC9F80020F8
:10279800FFF7E8FEBAE700BF24030020F00100209D
:1027A80010B5EFF31184102383F31288BFF36F8FF2
:1027B800FFF7E0FE054AD2E90031C31841EBE071AA
:1027C80084F31188BFF36F8F184610BDF001002005
:1027D800014800F09BBB00BFDC4400082DE9F04134
:1027E8000127BA4201DCBDE8F081064633461C7871
:1027F8001E46002CF7D0252C03F10103F7D11D78D4
:10280800252D06F10206F1D00024DFF8FC80A4464D
:1028180023461F2B31D8A5F1200EBEF1100F06D884
:1028280028FA0EFE1EF0010F64D12E2D46D02E2D53
:1028380031D8242D3DD02A2D40D0BCF1000FD2D064
:10284800BC45D3D145F02006A6F1650CBCF1020FBA
:102858000C680AD9612E08D0692D02D050D8632D92
:1028680050D01D064ED59B054CD5E31D23F007031C
:1028780003F108040C600137B3E77F2BD5D96C2D21
:1028880023D01DD8682D2BD06A2D01D04C2DD4D142
:1028980043F4207322E0A5F1300EBEF1090FEED803
:1028A8000A2303FB04E4202316F8015B002DB0D1B2
:1028B800C3E7BCF1000F1FD0BC421FD00024F3E7D0
:1028C800742DF1D07A2DEFD0B7E743F4007513F0EB
:1028D800800FADB218BF2B4643F080039BB2E3E7ED
:1028E80043F4007513F4807FADB218BF2B4643F450
:1028F8008073F3E70023D7E7A446DFE76325A1E762
:10290800732DADE70434B5E7892801002DE9F04FB0
:10291800837899B081469807CDE9031216D5D9F87E
:102928000430019307920B460025187880B12528BA
:1029380015D001330293019B4946984700280BDACA
:1029480099F8023043F0040389F802304FF0FF355C
:10295800284619B0BDE8F08F0135029BE5E793F8EA
:1029680001809A1CB8F1250F0292E4D04FF0000BB9
:102978005E465F465C461F2C24D8A8F12003102B26
:1029880022D8DFE803F01621211C2121210C212166
:10299800211421192121090044F00104A4B2029B49
:1029A80013F8018B0293B8F1000FE4D116E044F05C
:1029B800020444F00404F1E744F00804EEE744F0AC
:1029C8001004EBE77F2C78D8B8F12E0F59D035D802
:1029D800B8F1240F5BD0B8F12A0F40D0BBF1000F3B
:1029E80006D0049B039807935A4607A9FFF7F6FEFB
:1029F80048F02003002EA3F16502BCBF24F0400478
:102A08000026022A02D9612B40F08980079BDFF853
:102A18005C82073323F00703083307930726200750
:102A280040F1C48008EB060B44465C4540F0C0808A
:102A3800A5EB080804EB0802BF1BBDE1A8F13003B1
:102A4800092B3AD814F0400F4FF00A0202D002FBCB
:102A58000636A4E702FB073744F020049EE7BBF1E3
:102A6800000F9CD1079B610603F10402079201D570
:102A78001E6894E71F68002FEEDA7F4244F02804AE
:102A88008CE763063FF564AF44F0400486E7BBF18A
:102A9800000F3FD014F04008049B039807930CBF25
:102AA8003A46324607A9FFF799FE079B1A1D079277
:102AB800B8F1000FDCD11F6871E7B8F16C0F15D0C1
:102AC8000BD8B8F1680F1BD0B8F16A0F02D0B8F173
:102AD8004C0F83D144F4207460E7B8F1740F3FF4CD
:102AE8005EAFB8F17A0F3FF45AAF77E744F400735A
:102AF80014F0800F9BB218BF1C4644F080044DE7C9
:102B080044F4007314F4807F9BB218BF1C4644F44D
:102B1800807443E75E463446BB4637463FE7A8F134
:102B28006302122A00F2DB80DFE812F013004B0088
:102B3800D900D900D900D9004B00D900D900D90053
:102B4800D900D900F200D300D900D9001D00D9005E
:102B5800A400079B1A1D07921B688DF820300126D8
:102B68000DF120085BE7079B1A1D0792D3F8008038
:102B78003F4BB8F1000F08BF984614F0400F14BF40
:102B880031464FF0FF31404600F015FF064646E754
:102B9800019B4946202098470028FFF6D1AE013C0A
:102BA800A642F5D33D442D1B27463BE73C46F7E7B5
:102BB80014F8010B019B494698470028BFF635AF2A
:102BC800BEE62106079B2ED5A20527D5073323F09D
:102BD800070303F108020792D3E90001002924F052
:102BE800100B30DA404261EB41014BF4806B08ACCA
:102BF8000A23224600F0EBFE1BF0400FA0EB040274
:102C080000F09D8096422BF0010440F3A280B8F1B9
:102C1800000F40F0A0802BF011041EE01A1D07924F
:102C28001868C117DAE71A1D0792E005196801D478
:102C38000846F6E7A2054BBF48B208B241F3C011F7
:102C480041F3C031CAE750EA0103D0D16306CED5BB
:102C5800002ECCD124F011043246B24640F206418F
:102C6800214089B2002971D127E000BF1E45000824
:102C78001745000824F010040A2314F0800C079A62
:102C88004CD014F400711DBF073222F0070202F184
:102C98000801101D15BF07910790D2E900011068BF
:102CA80050EA010247D1620624F0160B45D5002EE2
:102CB80043D124F017043246B246230762D4E10711
:102CC80005D557457BDDA7EB0A039E18BA46D346C0
:102CD80051E044F0100410234FF07808CDE7782B2A
:102CE80004D1C8F1780343F01003C6E7622B13D070
:102CF800019B4946252098470028FFF621AE019BF5
:102D08004946404698470028FFF61AAE023524E6A1
:102D180008234FF00008B0E70223AEE7111D079122
:102D280014F480711068BBD014F400711ABFC0B2DB
:102D3800614680B2B4E724F0060B08AC59E7924626
:102D48005C46E1068AD5B8F1000F06D10AF1010AFE
:102D5800B3E79246F5E7B246F3E70AF1020AACE7B1
:102D6800019B05924946202098470028FFF6E8ADC8
:102D7800059A0BF1010B5F45F2DCA5EB0A0303EBA7
:102D88000B05DA46E30627D5019B05924946302014
:102D980098470028FFF6D4AD059AB8F1000F10D176
:102DA80001352E44711B8A422EDB144608AE002CD6
:102DB80035D12A44A7EB0A071546174442E01646C0
:102DC80085E7019B05924946404698470028FFF64B
:102DD800B7AD0235059AE4E740F20641214089B2D1
:102DE8000029DED014F0020F14BF2B20202014F489
:102DF800806F18BF2D20019B0592494698470028EF
:102E0800FFF69EAD0135E5E7019B05924946302066
:102E180098470028FFF694AD059A0135C2E7013CB2
:102E2800019B305D0592494698470028059ABEDA0D
:102E380086E5019B494620209847002805F10105B1
:102E4800FFF67EAD7B1B002BF3DC86E5704700EBBD
:102E5800C100408840087047F8B50346FFF7F7FF00
:102E6800B0FA80F0C0F11F0003EB8007CA003D698B
:102E7800161D063245B901248440D8682043D8601D
:102E8800396199539952F8BDE80004301C5A9C5393
:102E980003EBC4049D52E1801952F4E7043A2DE98A
:102EA800F041CC1D114424F0070421F00706331B20
:102EB800DF08B7FA87F2C2F12405AD004FF0000829
:102EC8000735C2F12002ED0804604146A760C4F846
:102ED8000C80920004F1100000F065FD6B0043F0D7
:102EE8000103638004EBC5027B1B5900A4F8008032
:102EF800518024F8355033800123738029462046B9
:102F0800BDE8F041FFF7A8BF002070470FB407B530
:102F180004A951F8040B0191FDF7C4FA03B05DF858
:102F280004EB04B07047044608B5084611461A4633
:102F3800A047FFF7EBF9FDF7B3FD704700F033BD8D
:102F480000F023BD01460068FDF762BB08B5FDF738
:102F58008FFBBDE80840FDF78FBB00210120FDF77E
:102F680057BB08B5FDF712FEFDF72AFBFDF734FB4A
:102F780000F019F8FEF732FF6FF08500704761B670
:102F880062B680F31188BFF36F8F704772B6002363
:102F980083F31188BFF36F8FBFF34F8F30BF62B6D3
:102FA800BFF36F8F70470023102103F1604202F5D1
:102FB800614201333E2B82F80013F6D17047202876
:102FC80009D9B0F1004F08D80138B0FA80F0C0F143
:102FD8001F0040007047082070473E207047FDF7EB
:102FE80095BF08B5062201210020FDF7B5FF002294
:102FF80011460620FDF7B4FD012108460722FDF71A
:10300800ABFF002211460720FDF7AAFD0822012187
:103018000220FDF7A1FF002211460820FDF7A0FDC0
:10302800092201210320FDF797FF002211460920FC
:10303800FDF796FD0A2201210420FDF78DFF0022ED
:1030480011460A20FDF78CFD052108461622FDF7DA
:1030580083FF002211461620FDF782FD2922062152
:103068000A20FDF779FF002211462920FDF778FD97
:10307800002008BD01F01F0101208840704700F0C2
:103088000302043292000F23934043EA900010B5E4
:1030980000F003039B0003F1804303F58033020C27
:1030A8009C6892FAA2F2B2FA82F202F00F0224EAC3
:1030B800104091400143996010BD4FF0B04318682B
:1030C800C0F3802070470B88C3F30B0303F6B87274
:1030D800C2F30B021C2A82B010D803F1B04348682F
:1030E8001A6802431A600B88C3F30B0303F1B04359
:1030F80000201B680193019B02B070476FF08500A8
:10310800FAE70B88C3F30B0303F6B872C2F30B029A
:103118001C2A9FBF03F1B04349681A688A439ABFC3
:1031280000201A606FF08500704701380A2809D816
:1031380040F2EF63C34013F0010F0CBF6FF085003E
:10314800002070476FF08500704738B50888C0F3D5
:103158000B00FFF7EAFFD8B94B68FF2B17D09AB2DC
:1031680002F1B042C3F384551468C3F3054305FA6A
:1031780003F324EA030313604A6891B201F1B041F2
:10318800D30E0C68C2F30542934023430B6038BD4D
:103198006FF08500FBE70888C0F30B0008B500F660
:1031A800B873C3F30B031C2B08D800F1B0404B686D
:1031B800026893430CBF0220012008BDFFF7B5FF4A
:1031C80000280CBF02200120F7E7704770474368CA
:1031D8005B681B690B600020704743685B6858692F
:1031E80042400A4042405A610020704743685B6889
:1031F80000209961704743685B68002099627047B6
:1032080043685A6853694B4053610020704730B592
:103218000369986800B30024884219D108688CB9FA
:10322800DC689860A14200D1D860002008602AB10B
:103238009A680A60DA68996002B9D96000200FE0DC
:103248002846E9E72060D868814208BFDC60ECE7DF
:1032580005680446002DF3D1002AE9D16FF0150066
:1032680030BDF0B54468012067688840C2F3801615
:1032780027EA00078E403E43666090FAA0F7B7FA47
:1032880087F7D4F808C04FF0030E7F000EFA07F74F
:103298002CEA070C90FAA0F7B7FA87F7C2F3C11621
:1032A8007F00BE4046EA0C06A66090FAA0F6B6FA81
:1032B80086F6E76876000EFA06F627EA060790FA19
:1032C800A0F6B6FA86F602F030057600C2F341227F
:1032D800B2403A43202DE26016D107292BD890FA44
:1032E800A0F2216A2AB3B2FA82F292000F2606FAF5
:1032F80002F221EA020190FAA0F2B2FA82F29200F6
:1033080003FA02F20A43226290FAA0F3B3FA83F3B3
:10331800226890FAA0F05B000321B0FA80F02D0932
:1033280001FA03F3400022EA030385401D432560A8
:10333800F0BD2A46D9E7020A666A92FAA2F181B17B
:10334800B1FA81F189000F2792FAA2F2B2FA82F259
:1033580007FA01F1920026EA010193400B436362E8
:10336800D2E72946EEE712F4003CF8B50C461346BE
:103378003ED0960735D555075DD55022D90632D5AA
:1033880042F4007203F4C061B1F5806F05693FD063
:10339800B1F5C06F39D0B1F5007F3CD013F4403699
:1033A80012D02F6927FA04F1C9075FBF0121A14094
:1033B80039432961BCF1000F06D01F0341682DD5A0
:1033C80049680123A3408B61406800232146FFF729
:1033D80048FF26B92B6923FA04F2D20725D4002026
:1033E800F8BD1022CAE79F06CCD542F48062C9E72F
:1033F800D60305D5D50605D4C2F340129202C1E71B
:103408003022BFE74FF40072BCE742F4C072C5E750
:1034180042F48072C2E742F08002BFE75F0341BF17
:1034280001234968A3408B62CEE70122A24023EA28
:1034380002032B61D3E76FF08500D1E7F8B58B68FD
:10344800054613B14E681C6803B9F8BD9A682A404E
:1034580003D05F6819463046B8471CB12268234636
:103468001446F1E72246FAE7F8B51F4604464068D5
:103478000E461546FFF7F5FE112F08D1012303FA72
:1034880006F663685B682A054CBF9E619E62002051
:10349800F8BD30B5036813600579046804EBC5040A
:1034A800A34202D36FF0010030BD5C798C4203F176
:1034B8000803F0D10020F7E74368C1F34B101B68FD
:1034C80001F01F01C05801238B40034214BF0123A0
:1034D800002313700020704710B54368C1F34B10E8
:1034E8001A6801F01F01845801238B40234383503D
:1034F800002010BD10B54368C1F34B14186801F0E3
:103508001F01235801228A4023EA02032350002086
:1035180010BD38B504460D46FFF7DEFF29462046A4
:10352800BDE83840FFF7E6BFB0F5805F07D0B0F1DF
:10353800805F09D100290CBF0220012070470029B3
:103548000CBF04200320704700290CBF0320022071
:10355800704743681B68D869DA69C0F3C00002F095
:10356800010240EA4200DA699207DA6948BF40F08E
:1035780004005107DA6948BF40F02000D20542BF75
:103588004FF4807240F008001A62C10744BF082255
:103598001A62820744BF01221A62410744BF02220D
:1035A8001A62820644BF04221A62704710B5436843
:1035B8001B681020DA691206FCD5EFF3118280F33C
:1035C8001288BFF36F8FDC69240604D482F3118854
:1035D800BFF36F8FEEE7996282F31188BFF36F8FA5
:1035E80010BD43681B68DA69100744BF08221A62D5
:1035F800DA69920643BF5B6A0B7000204FF0FF3018
:10360800704710B503695B681B680B6043681B68EB
:103618001B6803F4C063B3F5806F04460A4633D0D1
:10362800A3F5C06043424341137163681B685B683C
:1036380003F44053B3F5805F28D0B3F5405F27D03B
:10364800002B0CBF01230323537163681B681868A0
:10365800196800F0102001F4C061FFF765FF907150
:1036680063681B689B6803F44073A3F540714B4281
:103678004B41D37161680968896811F4804F18BF9C
:103688000323D371002010BD0223CDE70023DBE71D
:103698000223D9E72DE9F0410A790369D0F80480BB
:1036A8005D68012A04460E4611D0931E5F425F41B1
:1036B800BF0271794046FDF76DFFB379022B09D03F
:1036C800042B31D0131E18BF01231B0306E04FF44F
:1036D800C067EEE7B2FA82F35B091B07F279D8F804
:1036E8000010012A0CBF4FF4407C4FF0000CB5428B
:1036F8001DD10A6822F0805222F4B0523A431A438C
:103708000A604B6823F4405303434B6063681A68AC
:10371800936823F4407343EA0C03936029682046B6
:10372800BDE8F041FDF76ABF4FF48053D6E7A2F138
:103738000308D8F1000E4EEB080ED1F8008008F40B
:10374800C06847451FBFD1F8008028F4C06848EA20
:1037580007070F6061680F68796801F44051884273
:103768001FBF796821F44051014379606168086896
:10377800016801F010218B421FBF016821F0102160
:103788000B430360636819688B6803F440739C45B6
:103798001FBF8B6823F4407343EA0C038B60636894
:1037A8001B689968C1F38031714507D0032A9A686C
:1037B8000CBF42F4804222F480429A6031682B6840
:1037C800994207D02046FDF719FF08B933682B60E6
:1037D800BDE8F0810020FBE710B5436904463BB91A
:1037E8000020E268537843F001035370404210BD53
:1037F80098470028F4D00028B8BF4042E368FF2863
:10380800A8BFFF201870ECE740B1C368587810F0E3
:1038180001001EBF1878B0FA80F040097047EFF336
:103828001183102383F31288BFF36F8FFEE708B567
:10383800FFF7F5FF08B51024EFF3118384F312881E
:10384800BFF36F8FFFF7A2FBF6E7D0E900321360F2
:103858005A600023C0E90033704708B5FFF7F5FF49
:10386800437B23F0020343730023836008BD10B534
:10387800EFF31184102383F31288BFF36F8FFEF7E1
:1038880075FB84F31188BFF36F8F10BD10B5014627
:10389800EFF31184102383F31288BFF36F8F437BF8
:1038A80003F0280343B983685BB94B7B23F0040317
:1038B8004B730846FEF75AFB84F31188BFF36F8FEA
:1038C80010BDFFF7CAFFF0E701211838FFF7DEBF88
:1038D80038B504460D46FEF7B9FCB5F1FF3F08BF01
:1038E800B4F1FF3F034620460AD0D91713F1090067
:1038F80041F100010B4304D00A220023FCF718FC15
:1039080038BD0020FCE708B50146FEF72BFE68B17C
:10391800D0E90432581A62EBE173B0F1004F73F149
:10392800000203DA002BB8BF002008BD6FF000408A
:10393800FBE770B50446EFF31185102383F3128873
:10394800BFF36F8F0368CBB1FEF70CFE0646204627
:10395800FEF71AFE00224FF00043B442C4E90423E4
:1039680006D1FEF707FEFFF7CEFF0021FEF720F88D
:10397800002085F31188BFF36F8F70BD6FF01500BD
:10398800F7E708B5FEF70CFF08BD0A44914200F1BD
:10399800FF3300D1704710B511F8014B03F8014F00
:1039A8009142F9D110BD02440346934200D17047B9
:1039B80003F8011BF9E710B5024601448A42134691
:1039C80003D01C780132002CF8D1181A10BDF0B5BC
:1039D8000446C3F13707104603F01F03082B264699
:1039E80013D0102B18D0022B4FEA54054FEA51027E
:1039F8001ED104F0010645EAC1741146303654EA76
:103A0800010200F8016BE9D1F0BD04F00706E408F3
:103A180044EA4174C908F1E704F00F06240944EAAE
:103A280001740909BA19D2B2092E88BF1646E5E70A
:103A3800A40845EAC17544EA81742C1942EB910245
:103A4800210941EA0271641842EB1212210A41EA83
:103A58000261641842EB1222210C41EA0241641807
:103A680042EB1242A41842F10002E40844EA42740C
:103A7800D10804EB8402A6EB4206F6B2092EBDD9A2
:103A88000134A6F10A0641F10001F6B2CAE70000C6
:083A9800D0C6FF7F0100000011
:103AA00000000000083B0008DD04000800000000E2
:103AB00000000000283B000800000000C83B000890
:103AC00000000000883B000800000000A83B000840
:103AD00000000000483B000800000000683B0008B0
:103AE000EB2F00080000000000000000E83B000889
:103AF000E913000800000000311900080000000070
:083B00003D0F00080000000069
:103B080071440008000000002C3E00084600002018
:103B1800000000002D120008000000000000000056
:103B2800B64400084C3F00081C3E00085000002026
:103B3800000000000000000000000000000000007D
:103B4800534400080000000000000000440000206A
:103B580000000000F1100008000000000000000054
:103B68007E440008943E0008F83D00084800002004
:103B78009C020020E1140008000000000000000082
:103B88008C440008A83E0008F83D00084A000020C0
:103B9800B0020020E114000800000000000000004E
:103BA8009A440008BC3E0008F83D00084C0000207C
:103BB800C4020020E114000800000000000000001A
:103BC800A8440008D03E0008F83D00084E00002038
:103BD800D8020020E11400080000000000000000E6
:103BE800C7440008503F0008483E00085200002023
:103BF80014000020A91700080000000000000000C1
:103C080000000000632F000800000000632F000878
:103C180000000000632F000800000000632F000868
:103C280000000000632F000800000000632F000858
:103C380032450008790F000830450008790F000860
:103C48002E450008790F00082C450008790F000858
:103C58002A450008790F000800000000632F0008BB
:103C680000000000632F000800000000632F000818
:103C780000000000632F000800000000632F000808
:103C880000000000632F000800000000632F0008F8
:103C980000000000632F000800000000632F0008E8
:103CA80000000000632F000800000000632F0008D8
:103CB80028450008790F000800000000632F00085D
:103CC80000000000632F000800000000632F0008B8
:103CD80000000000632F000800000000632F0008A8
:103CE80000000000632F000800000000632F000898
:103CF80000000000632F000800000000632F000888
:103D080000000000632F000800000000632F000877
:103D180000000000632F000800000000632F000867
:103D280000000000632F000800000000632F000857
:103D380000000000632F000800000000632F000847
:103D480000000000632F000826450008790F0008CE
:103D580000000000632F000800000000632F000827
:103D680000000000632F000800000000632F000817
:103D780000000000632F000800000000632F000807
:103D880000000000632F000800000000632F0008F7
:103D980000000000632F000800000000632F0008E7
:103DA80000000000632F000800000000632F0008D7
:103DB80000000000632F000800000000632F0008C7
:103DC80000000000632F000800000000632F0008B7
:103DD80000000000632F000800000000632F0008A7
:103DE80000000000632F000800000000632F000897
:103DF8006F330008D7310008E3310008F5310008B7
:103E0800FF31000809320008391400081732000889
:043E180000000000A6
:103E1C00C1340008E1340008FD3400081B350008EB
:103E2C00CF3000080B3100080000000079110008A9
:0C3E3C009F310008000000005331000816
:103E4800EB350008B53500085B350008C1160008D9
:043E58000B3600081D
:103E5C000000000001000000020000000000002033
:103E6C000000000000000B06020000007C3E000871
:103E7C000000000844440008220002060000002054
:103E8C004C4400081E000B11FFFF0000001C0048F2
:103E9C00070000004C00000080000000FFFF000045
:103EAC0000080048020000004C0000000400000064
:103EBC00FFFF000000040048010000004C0000005F
:103ECC0002000000FFFF000000000048000000009E
:103EDC004C00000001000000C83B0008A83B000893
:103EEC00883B0008000000000000000000000000FB
:103EFC0000000000683B000800000000000000000B
:103F0C0000000000000000000000000000000000A5
:103F1C000000000000000000000000000000000095
:103F2C000000000000000000000000000000000085
:103F3C000000000000000000000000000000000075
:103F4C000000005800800040283B0008800700005B
:103F5C00743F000801000000000000000000000099
:103F6C00000000007C3F00085C0000000100000025
:103F7C00843F0008010000008C3F00080200000094
:103F8C004800000000020000680000000000000073
:103F9C00A0860100400D0300801A060000350C00BD
:103FAC0040420F0080841E0000093D0000127A0080
:103FBC000024F40000366E010048E801006CDC02BD
:103FCC0000000000000000000000000000000000E5
:103FDC0001000000030000000500000001000000CB
:103FEC0001000000060000000A0000002000000094
:103FFC000200000004000000080000001000000097
:10400C0040000000800000000001000000020000E1
:10401C00A03A0008A03A0008F83A0008003B000853
:10402C00083B0008083B00080100020004000600E1
:10403C0008000A000C001000200040008000000165
:10404C0048656C6C6F2066726F6D206D795F7A6558
:10405C00706879725F617070210A0072302F613163
:10406C003A2020307825303878202072312F613278
:10407C003A2020307825303878202072322F613366
:10408C003A20203078253038780A0072332F61348A
:10409C003A2020307825303878207231322F6970F0
:1040AC003A2020307825303878207231342F6C72D9
:1040BC003A20203078253038780A002078707372D6
:1040CC003A20203078253038780A004661756C74B7
:1040DC00696E6720696E737472756374696F6E2094
:1040EC006164647265737320287231352F70632993
:1040FC003A203078253038780A00556E68616E6445
:10410C006C6564204952516E3A2025640A002A2AB3
:10411C002A2A2A204D5055204641554C54202A2AF3
:10412C002A2A2A0A002020537461636B696E672067
:10413C006572726F722028636F6E7465787420617B
:10414C00726561206D69676874206265206E6F749A
:10415C002076616C6964290A002020556E737461A5
:10416C00636B696E67206572726F720A002020445F
:10417C00617461204163636573732056696F6C6170
:10418C0074696F6E0A0020204D4D464152204164E7
:10419C0064726573733A20307825780A00202049C0
:1041AC006E737472756374696F6E204163636573AB
:1041BC00732056696F6C6174696F6E0A002A2A2A23
:1041CC002A2A205553414745204641554C54202A14
:1041DC002A2A2A2A0A0020204469766973696F6E9C
:1041EC00206279207A65726F0A002020556E616C0E
:1041FC0069676E6564206D656D6F727920616363AC
:10420C006573730A0020204E6F20636F70726F63AA
:10421C006573736F7220696E737472756374696FF2
:10422C006E730A002020496C6C6567616C206C6FA2
:10423C006164206F66204558435F52455455524E79
:10424C0020696E746F2050430A002020496C6C6505
:10425C0067616C20757365206F66207468652045F6
:10426C005053520A002020417474656D7074207490
:10427C006F206578656375746520756E6465666915
:10428C006E656420696E737472756374696F6E0AFF
:10429C00002A2A2A2A2A20425553204641554C549A
:1042AC00202A2A2A2A2A0A002020537461636B6967
:1042BC006E67206572726F720A00202050726563FF
:1042CC006973652064617461206275732065727214
:1042DC006F720A002020424641522041646472658C
:1042EC0073733A20307825780A002020496D70725B
:1042FC006563697365206461746120627573206500
:10430C0072726F720A002020496E73747275637436
:10431C00696F6E20627573206572726F720A00523B
:10432C006573657276656420457863657074696F32
:10433C006E20280053707572696F757320696E74E6
:10434C006572727570742028495251200053505375
:10435C00454C20696E20746872656164206D6F64D1
:10436C006520646F6573206E6F7420696E64696379
:10437C00617465205053500A002A2A2A2A2A2048A0
:10438C00415244204641554C54202A2A2A2A2A0AB2
:10439C00002020427573206661756C74206F6E204E
:1043AC00766563746F72207461626C6520726561EE
:1043BC00640A0020204465627567206576656E741A
:1043CC000A0020204661756C7420657363616C6112
:1043DC0074696F6E20287365652062656C6F772930
:1043EC000A00415243485F45584345505420776971
:1043FC00746820726561736F6E2025780A0A002A32
:10440C002A2A2A2A204465627567206D6F6E6974AA
:10441C006F7220657863657074696F6E202A2A2A22
:10442C002A2A0A002A2A2A2A2A20257320256429C6
:10443C00202A2A2A2A2A0A00464C4153485F300077
:10444C005352414D5F3000696E74657272757074B1
:10445C002D636F6E74726F6C6C65724035383030D2
:10446C0030383030007263634035383030303030A3
:10447C0030006770696F4034383030316330300051
:10448C006770696F403438303030383030006770C6
:10449C00696F403438303030343030006770696FB9
:1044AC004034383030303030300072657365742DE4
:1044BC00636F6E74726F6C6C657200736572696198
:1044CC006C403430303038303030006D61696E0003
:1044DC002A2A2A20426F6F74696E67205A657068A9
:1044EC007972204F53206275696C642076342E32B9
:1044FC002E302D353034302D6737333065666439C6
:10450C006135393166202A2A2A0A00286E756C6CAE
:10451C0029002A666C6F61742A000A0605050401DD
:08452C0003010201010100017D
:10453400112F000800000000E72F00080000000011
:1045440000000000000000001C00002000C2010068
:104554000001030000093D00C80000002C000020F9
:104564002C000020FFFFFFFFFFFFFFFFFFFFFFFF07
:04457400FFFFFFFF47
:104578000000000000000000000000000000000033
:0445880015E015E045
:0400000508000A7570
:00000001FF
